{"abi":[{"type":"constructor","inputs":[{"name":"_identityRegistry","type":"address","internalType":"address"},{"name":"_reputationRegistry","type":"address","internalType":"address"},{"name":"_bondingCurveRouter","type":"address","internalType":"address"},{"name":"_lens","type":"address","internalType":"address"},{"name":"_owner","type":"address","internalType":"address"}],"stateMutability":"nonpayable"},{"type":"receive","stateMutability":"payable"},{"type":"function","name":"acceptOwnership","inputs":[],"outputs":[],"stateMutability":"nonpayable"},{"type":"function","name":"agentExists","inputs":[{"name":"agentId","type":"uint256","internalType":"uint256"}],"outputs":[{"name":"","type":"bool","internalType":"bool"}],"stateMutability":"view"},{"type":"function","name":"bondingCurveRouter","inputs":[],"outputs":[{"name":"","type":"address","internalType":"contract IBondingCurveRouter"}],"stateMutability":"view"},{"type":"function","name":"deactivateAgent","inputs":[{"name":"agentId","type":"uint256","internalType":"uint256"}],"outputs":[],"stateMutability":"nonpayable"},{"type":"function","name":"getAgent","inputs":[{"name":"agentId","type":"uint256","internalType":"uint256"}],"outputs":[{"name":"","type":"tuple","internalType":"struct AgentFactory.AgentInfo","components":[{"name":"agentId","type":"uint256","internalType":"uint256"},{"name":"token","type":"address","internalType":"address"},{"name":"creator","type":"address","internalType":"address"},{"name":"agentWallet","type":"address","internalType":"address"},{"name":"endpoint","type":"string","internalType":"string"},{"name":"launchedAt","type":"uint64","internalType":"uint64"},{"name":"active","type":"bool","internalType":"bool"}]}],"stateMutability":"view"},{"type":"function","name":"getAgentByToken","inputs":[{"name":"tokenAddress","type":"address","internalType":"address"}],"outputs":[{"name":"","type":"tuple","internalType":"struct AgentFactory.AgentInfo","components":[{"name":"agentId","type":"uint256","internalType":"uint256"},{"name":"token","type":"address","internalType":"address"},{"name":"creator","type":"address","internalType":"address"},{"name":"agentWallet","type":"address","internalType":"address"},{"name":"endpoint","type":"string","internalType":"string"},{"name":"launchedAt","type":"uint64","internalType":"uint64"},{"name":"active","type":"bool","internalType":"bool"}]}],"stateMutability":"view"},{"type":"function","name":"getAgentReputation","inputs":[{"name":"agentId","type":"uint256","internalType":"uint256"}],"outputs":[{"name":"count","type":"uint64","internalType":"uint64"},{"name":"value","type":"int256","internalType":"int256"},{"name":"decimals","type":"uint8","internalType":"uint8"}],"stateMutability":"view"},{"type":"function","name":"getAgentsByCreator","inputs":[{"name":"creator","type":"address","internalType":"address"}],"outputs":[{"name":"","type":"uint256[]","internalType":"uint256[]"}],"stateMutability":"view"},{"type":"function","name":"getTokenProgress","inputs":[{"name":"agentId","type":"uint256","internalType":"uint256"}],"outputs":[{"name":"","type":"uint256","internalType":"uint256"}],"stateMutability":"view"},{"type":"function","name":"identityRegistry","inputs":[],"outputs":[{"name":"","type":"address","internalType":"contract IIdentityRegistry"}],"stateMutability":"view"},{"type":"function","name":"isAgentToken","inputs":[{"name":"tokenAddress","type":"address","internalType":"address"}],"outputs":[{"name":"","type":"bool","internalType":"bool"}],"stateMutability":"view"},{"type":"function","name":"isTokenGraduated","inputs":[{"name":"agentId","type":"uint256","internalType":"uint256"}],"outputs":[{"name":"","type":"bool","internalType":"bool"}],"stateMutability":"view"},{"type":"function","name":"launchAgent","inputs":[{"name":"params","type":"tuple","internalType":"struct AgentFactory.LaunchParams","components":[{"name":"agentURI","type":"string","internalType":"string"},{"name":"endpoint","type":"string","internalType":"string"},{"name":"tokenName","type":"string","internalType":"string"},{"name":"tokenSymbol","type":"string","internalType":"string"},{"name":"tokenURI","type":"string","internalType":"string"},{"name":"initialBuyAmount","type":"uint256","internalType":"uint256"},{"name":"salt","type":"bytes32","internalType":"bytes32"}]}],"outputs":[{"name":"agentId","type":"uint256","internalType":"uint256"},{"name":"token","type":"address","internalType":"address"}],"stateMutability":"payable"},{"type":"function","name":"lens","inputs":[],"outputs":[{"name":"","type":"address","internalType":"contract ILens"}],"stateMutability":"view"},{"type":"function","name":"linkToken","inputs":[{"name":"agentId","type":"uint256","internalType":"uint256"},{"name":"tokenAddress","type":"address","internalType":"address"}],"outputs":[],"stateMutability":"nonpayable"},{"type":"function","name":"onERC721Received","inputs":[{"name":"","type":"address","internalType":"address"},{"name":"","type":"address","internalType":"address"},{"name":"","type":"uint256","internalType":"uint256"},{"name":"","type":"bytes","internalType":"bytes"}],"outputs":[{"name":"","type":"bytes4","internalType":"bytes4"}],"stateMutability":"view"},{"type":"function","name":"owner","inputs":[],"outputs":[{"name":"","type":"address","internalType":"address"}],"stateMutability":"view"},{"type":"function","name":"pause","inputs":[],"outputs":[],"stateMutability":"nonpayable"},{"type":"function","name":"paused","inputs":[],"outputs":[{"name":"","type":"bool","internalType":"bool"}],"stateMutability":"view"},{"type":"function","name":"pendingOwner","inputs":[],"outputs":[{"name":"","type":"address","internalType":"address"}],"stateMutability":"view"},{"type":"function","name":"reactivateAgent","inputs":[{"name":"agentId","type":"uint256","internalType":"uint256"}],"outputs":[],"stateMutability":"nonpayable"},{"type":"function","name":"registerAgent","inputs":[{"name":"agentURI","type":"string","internalType":"string"},{"name":"endpoint","type":"string","internalType":"string"}],"outputs":[{"name":"agentId","type":"uint256","internalType":"uint256"}],"stateMutability":"nonpayable"},{"type":"function","name":"renounceOwnership","inputs":[],"outputs":[],"stateMutability":"nonpayable"},{"type":"function","name":"reputationRegistry","inputs":[],"outputs":[{"name":"","type":"address","internalType":"contract IReputationRegistry"}],"stateMutability":"view"},{"type":"function","name":"tokenToAgent","inputs":[{"name":"token","type":"address","internalType":"address"}],"outputs":[{"name":"agentId","type":"uint256","internalType":"uint256"}],"stateMutability":"view"},{"type":"function","name":"totalAgents","inputs":[],"outputs":[{"name":"","type":"uint256","internalType":"uint256"}],"stateMutability":"view"},{"type":"function","name":"transferOwnership","inputs":[{"name":"newOwner","type":"address","internalType":"address"}],"outputs":[],"stateMutability":"nonpayable"},{"type":"function","name":"unpause","inputs":[],"outputs":[],"stateMutability":"nonpayable"},{"type":"function","name":"updateAgentWallet","inputs":[{"name":"agentId","type":"uint256","internalType":"uint256"},{"name":"newWallet","type":"address","internalType":"address"}],"outputs":[],"stateMutability":"nonpayable"},{"type":"function","name":"updateEndpoint","inputs":[{"name":"agentId","type":"uint256","internalType":"uint256"},{"name":"newEndpoint","type":"string","internalType":"string"}],"outputs":[],"stateMutability":"nonpayable"},{"type":"event","name":"AgentDeactivated","inputs":[{"name":"agentId","type":"uint256","indexed":true,"internalType":"uint256"}],"anonymous":false},{"type":"event","name":"AgentEndpointUpdated","inputs":[{"name":"agentId","type":"uint256","indexed":true,"internalType":"uint256"},{"name":"newEndpoint","type":"string","indexed":false,"internalType":"string"}],"anonymous":false},{"type":"event","name":"AgentLaunched","inputs":[{"name":"agentId","type":"uint256","indexed":true,"internalType":"uint256"},{"name":"token","type":"address","indexed":true,"internalType":"address"},{"name":"creator","type":"address","indexed":true,"internalType":"address"},{"name":"agentURI","type":"string","indexed":false,"internalType":"string"},{"name":"endpoint","type":"string","indexed":false,"internalType":"string"},{"name":"tokenName","type":"string","indexed":false,"internalType":"string"},{"name":"tokenSymbol","type":"string","indexed":false,"internalType":"string"}],"anonymous":false},{"type":"event","name":"AgentReactivated","inputs":[{"name":"agentId","type":"uint256","indexed":true,"internalType":"uint256"}],"anonymous":false},{"type":"event","name":"AgentRegistered","inputs":[{"name":"agentId","type":"uint256","indexed":true,"internalType":"uint256"},{"name":"creator","type":"address","indexed":true,"internalType":"address"},{"name":"agentURI","type":"string","indexed":false,"internalType":"string"},{"name":"endpoint","type":"string","indexed":false,"internalType":"string"}],"anonymous":false},{"type":"event","name":"AgentTokenLinked","inputs":[{"name":"agentId","type":"uint256","indexed":true,"internalType":"uint256"},{"name":"token","type":"address","indexed":true,"internalType":"address"}],"anonymous":false},{"type":"event","name":"AgentWalletUpdated","inputs":[{"name":"agentId","type":"uint256","indexed":true,"internalType":"uint256"},{"name":"newWallet","type":"address","indexed":false,"internalType":"address"}],"anonymous":false},{"type":"event","name":"OwnershipTransferStarted","inputs":[{"name":"previousOwner","type":"address","indexed":true,"internalType":"address"},{"name":"newOwner","type":"address","indexed":true,"internalType":"address"}],"anonymous":false},{"type":"event","name":"OwnershipTransferred","inputs":[{"name":"previousOwner","type":"address","indexed":true,"internalType":"address"},{"name":"newOwner","type":"address","indexed":true,"internalType":"address"}],"anonymous":false},{"type":"event","name":"Paused","inputs":[{"name":"account","type":"address","indexed":false,"internalType":"address"}],"anonymous":false},{"type":"event","name":"Unpaused","inputs":[{"name":"account","type":"address","indexed":false,"internalType":"address"}],"anonymous":false},{"type":"error","name":"AgentFactory__AgentAlreadyActive","inputs":[{"name":"agentId","type":"uint256","internalType":"uint256"}]},{"type":"error","name":"AgentFactory__AgentNotActive","inputs":[{"name":"agentId","type":"uint256","internalType":"uint256"}]},{"type":"error","name":"AgentFactory__AgentNotFound","inputs":[{"name":"agentId","type":"uint256","internalType":"uint256"}]},{"type":"error","name":"AgentFactory__EmptyName","inputs":[]},{"type":"error","name":"AgentFactory__EmptySymbol","inputs":[]},{"type":"error","name":"AgentFactory__EmptyURI","inputs":[]},{"type":"error","name":"AgentFactory__MONTransferFailed","inputs":[]},{"type":"error","name":"AgentFactory__NoTokenLinked","inputs":[{"name":"agentId","type":"uint256","internalType":"uint256"}]},{"type":"error","name":"AgentFactory__NotAgentOwner","inputs":[{"name":"agentId","type":"uint256","internalType":"uint256"},{"name":"caller","type":"address","internalType":"address"}]},{"type":"error","name":"AgentFactory__TokenAlreadyLinked","inputs":[{"name":"agentId","type":"uint256","internalType":"uint256"}]},{"type":"error","name":"AgentFactory__TokenAlreadyUsed","inputs":[{"name":"token","type":"address","internalType":"address"}]},{"type":"error","name":"AgentFactory__TokenNotFound","inputs":[{"name":"token","type":"address","internalType":"address"}]},{"type":"error","name":"AgentFactory__UnexpectedNFT","inputs":[{"name":"operator","type":"address","internalType":"address"}]},{"type":"error","name":"AgentFactory__ZeroAddress","inputs":[]},{"type":"error","name":"EnforcedPause","inputs":[]},{"type":"error","name":"ExpectedPause","inputs":[]},{"type":"error","name":"OwnableInvalidOwner","inputs":[{"name":"owner","type":"address","internalType":"address"}]},{"type":"error","name":"OwnableUnauthorizedAccount","inputs":[{"name":"account","type":"address","internalType":"address"}]},{"type":"error","name":"ReentrancyGuardReentrantCall","inputs":[]},{"type":"error","name":"SafeERC20FailedOperation","inputs":[{"name":"token","type":"address","internalType":"address"}]}],"bytecode":{"object":"0x610100604052348015610010575f80fd5b506040516133dd3803806133dd83398101604081905261002f916101d0565b806001600160a01b03811661005d57604051631e4fbdf760e01b81525f600482015260240160405180910390fd5b6100668161014a565b5060017f9b779b17422d0df92223018b32b4d1fa46e071723d6817e2486d003becc55f00556001600160a01b0385166100b25760405163fdc1409160e01b815260040160405180910390fd5b6001600160a01b0384166100d95760405163fdc1409160e01b815260040160405180910390fd5b6001600160a01b0383166101005760405163fdc1409160e01b815260040160405180910390fd5b6001600160a01b0382166101275760405163fdc1409160e01b815260040160405180910390fd5b506001600160a01b0393841660805291831660a052821660c0521660e052610231565b600180546001600160a01b031916905561016381610166565b50565b5f80546001600160a01b038381166001600160a01b0319831681178455604051919092169283917f8be0079c531659141344cd1fd0a4f28419497f9722a3daafe3b4186f6b6457e09190a35050565b80516001600160a01b03811681146101cb575f80fd5b919050565b5f805f805f60a086880312156101e4575f80fd5b6101ed866101b5565b94506101fb602087016101b5565b9350610209604087016101b5565b9250610217606087016101b5565b9150610225608087016101b5565b90509295509295909350565b60805160a05160c05160e05161311e6102bf5f395f8181610219015281816115c6015261193601525f818161036d015261243101525f81816104eb015261167001525f8181610285015281816108b001528181610a2701528181610c5601528181610eba015281816113720152818161173a01528181611ad201528181611e85015261227b015261311e5ff3fe6080604052600436106101c8575f3560e01c80638da5cb5b116100f2578063cece8f9811610092578063e30c397811610062578063e30c397814610624578063f2fde38b14610641578063fd61031714610660578063ff17aca41461067f575f80fd5b8063cece8f9814610574578063de99f1571461059f578063e1e6261a146105d9578063e246578c146105f8575f80fd5b8063c5053712116100cd578063c5053712146104b7578063c8db44e3146104da578063cb43091f1461050d578063ce1c7d1e14610555575f80fd5b80638da5cb5b1461044c57806398cefe7714610468578063b4e9fe9f14610498575f80fd5b806333c9cef6116101685780635c975abb116101385780635c975abb146103e1578063715018a61461041057806379ba5097146104245780638456cb5914610438575f80fd5b806333c9cef61461035c5780633f4ba83a1461038f57806347e443a9146103a357806354fec772146103c2575f80fd5b8063134e18f4116101a3578063134e18f414610274578063150b7a02146102a75780631640af1e146102f75780632de5aaf71461033d575f80fd5b806304ac6ee4146101d3578063112666b71461020857806311ba6b4a14610253575f80fd5b366101cf57005b5f80fd5b3480156101de575f80fd5b506101f26101ed366004612732565b61069e565b6040516101ff919061277b565b60405180910390f35b348015610213575f80fd5b5061023b7f000000000000000000000000000000000000000000000000000000000000000081565b6040516001600160a01b0390911681526020016101ff565b34801561025e575f80fd5b5061027261026d36600461280d565b61086e565b005b34801561027f575f80fd5b5061023b7f000000000000000000000000000000000000000000000000000000000000000081565b3480156102b2575f80fd5b506102c66102c1366004612869565b610a1b565b6040517fffffffff0000000000000000000000000000000000000000000000000000000090911681526020016101ff565b348015610302575f80fd5b5061032d610311366004612732565b6001600160a01b03165f90815260036020526040902054151590565b60405190151581526020016101ff565b348015610348575f80fd5b506101f261035736600461280d565b610aab565b348015610367575f80fd5b5061023b7f000000000000000000000000000000000000000000000000000000000000000081565b34801561039a575f80fd5b50610272610c02565b3480156103ae575f80fd5b506102726103bd3660046128d7565b610c14565b3480156103cd575f80fd5b506102726103dc366004612905565b610e78565b3480156103ec575f80fd5b5060015474010000000000000000000000000000000000000000900460ff1661032d565b34801561041b575f80fd5b50610272610fc7565b34801561042f575f80fd5b50610272610fd8565b348015610443575f80fd5b50610272611035565b348015610457575f80fd5b505f546001600160a01b031661023b565b61047b61047636600461294d565b611045565b604080519283526001600160a01b039091166020830152016101ff565b3480156104a3575f80fd5b5061032d6104b236600461280d565b61153a565b3480156104c2575f80fd5b506104cc60055481565b6040519081526020016101ff565b3480156104e5575f80fd5b5061023b7f000000000000000000000000000000000000000000000000000000000000000081565b348015610518575f80fd5b5061052c61052736600461280d565b611636565b6040805167ffffffffffffffff9094168452602084019290925260ff16908201526060016101ff565b348015610560575f80fd5b5061027261056f3660046128d7565b6116f8565b34801561057f575f80fd5b506104cc61058e366004612732565b60036020525f908152604090205481565b3480156105aa575f80fd5b5061032d6105b936600461280d565b5f90815260026020819052604090912001546001600160a01b0316151590565b3480156105e4575f80fd5b506104cc6105f336600461280d565b6118aa565b348015610603575f80fd5b50610617610612366004612732565b61199f565b6040516101ff9190612984565b34801561062f575f80fd5b506001546001600160a01b031661023b565b34801561064c575f80fd5b5061027261065b366004612732565b611a08565b34801561066b575f80fd5b5061027261067a36600461280d565b611a90565b34801561068a575f80fd5b506104cc6106993660046129c6565b611c49565b6040805160e0810182525f80825260208083018290528284018290526060808401839052608084015260a0830182905260c083018290526001600160a01b038516825260039052919091205480158061070f57505f81815260026020819052604090912001546001600160a01b0316155b15610756576040517fbaaec0340000000000000000000000000000000000000000000000000000000081526001600160a01b03841660048201526024015b60405180910390fd5b5f81815260026020818152604092839020835160e0810185528154815260018201546001600160a01b03908116938201939093529281015482169383019390935260038301541660608201526004820180549192916080840191906107ba90612a32565b80601f01602080910402602001604051908101604052809291908181526020018280546107e690612a32565b80156108315780601f1061080857610100808354040283529160200191610831565b820191905f5260205f20905b81548152906001019060200180831161081457829003601f168201915b50505091835250506005919091015467ffffffffffffffff8116602083015268010000000000000000900460ff1615156040909101529392505050565b61087781611f5d565b6040517f6352211e0000000000000000000000000000000000000000000000000000000081526004810182905233906001600160a01b037f00000000000000000000000000000000000000000000000000000000000000001690636352211e90602401602060405180830381865afa1580156108f5573d5f803e3d5ffd5b505050506040513d601f19601f820116820180604052508101906109199190612a83565b6001600160a01b031614610962576040517f40c88f780000000000000000000000000000000000000000000000000000000081526004810182905233602482015260440161074d565b5f8181526002602052604090206005015468010000000000000000900460ff166109bb576040517fe11117c40000000000000000000000000000000000000000000000000000000081526004810182905260240161074d565b5f8181526002602052604080822060050180547fffffffffffffffffffffffffffffffffffffffffffffff00ffffffffffffffff1690555182917fc2fb7f8575ac3990e70361684edfc4d283931ea9a03dfa28766bf376a3934aa291a250565b5f336001600160a01b037f00000000000000000000000000000000000000000000000000000000000000001614610a80576040517f4b30da5c00000000000000000000000000000000000000000000000000000000815233600482015260240161074d565b507f150b7a020000000000000000000000000000000000000000000000000000000095945050505050565b6040805160e0810182525f808252602082018190529181018290526060808201839052608082015260a0810182905260c0810191909152610aeb82611f5d565b5f82815260026020818152604092839020835160e0810185528154815260018201546001600160a01b0390811693820193909352928101548216938301939093526003830154166060820152600482018054919291608084019190610b4f90612a32565b80601f0160208091040260200160405190810160405280929190818152602001828054610b7b90612a32565b8015610bc65780601f10610b9d57610100808354040283529160200191610bc6565b820191905f5260205f20905b815481529060010190602001808311610ba957829003601f168201915b50505091835250506005919091015467ffffffffffffffff8116602083015268010000000000000000900460ff16151560409091015292915050565b610c0a611fb1565b610c12611ff6565b565b610c1d82611f5d565b6040517f6352211e0000000000000000000000000000000000000000000000000000000081526004810183905233906001600160a01b037f00000000000000000000000000000000000000000000000000000000000000001690636352211e90602401602060405180830381865afa158015610c9b573d5f803e3d5ffd5b505050506040513d601f19601f82011682018060405250810190610cbf9190612a83565b6001600160a01b031614610d08576040517f40c88f780000000000000000000000000000000000000000000000000000000081526004810183905233602482015260440161074d565b5f828152600260205260409020600101546001600160a01b031615610d5c576040517fe15b56340000000000000000000000000000000000000000000000000000000081526004810183905260240161074d565b6001600160a01b0381165f9081526003602052604090205415610db6576040517f3ab6fa140000000000000000000000000000000000000000000000000000000081526001600160a01b038216600482015260240161074d565b6001600160a01b038116610df6576040517ffdc1409100000000000000000000000000000000000000000000000000000000815260040160405180910390fd5b5f82815260026020908152604080832060010180547fffffffffffffffffffffffff0000000000000000000000000000000000000000166001600160a01b038616908117909155808452600390925280832085905551909184917feb4761b8fe9cf2d54cd6e422050f97166d698f05e7e77a1c4a3532bc5d68fc2e9190a35050565b610e8183611f5d565b6040517f6352211e0000000000000000000000000000000000000000000000000000000081526004810184905233906001600160a01b037f00000000000000000000000000000000000000000000000000000000000000001690636352211e90602401602060405180830381865afa158015610eff573d5f803e3d5ffd5b505050506040513d601f19601f82011682018060405250810190610f239190612a83565b6001600160a01b031614610f6c576040517f40c88f780000000000000000000000000000000000000000000000000000000081526004810184905233602482015260440161074d565b5f838152600260205260409020600401610f87828483612b16565b50827f6a3a0beb54691369cfa3d9ccbfee7ad49dcfeb928219b0c2eab1e9261488a7628383604051610fba929190612c37565b60405180910390a2505050565b610fcf611fb1565b610c125f612066565b60015433906001600160a01b03168114611029576040517f118cdaa70000000000000000000000000000000000000000000000000000000081526001600160a01b038216600482015260240161074d565b61103281612066565b50565b61103d611fb1565b610c12612097565b5f8061104f612106565b611057612134565b6110618380612c4a565b90505f0361109b576040517fb6eeadb200000000000000000000000000000000000000000000000000000000815260040160405180910390fd5b6110a86040840184612c4a565b90505f036110e2576040517fdb0aebb300000000000000000000000000000000000000000000000000000000815260040160405180910390fd5b6110ef6060840184612c4a565b90505f03611129576040517f78aa98ce00000000000000000000000000000000000000000000000000000000815260040160405180910390fd5b6111486111368480612c4a565b6111436020870187612c4a565b612189565b91505f6111553447612cab565b905061116183856122fe565b91505f4790506040518060e00160405280858152602001846001600160a01b03168152602001336001600160a01b03168152602001336001600160a01b031681526020018680602001906111b59190612c4a565b8080601f0160208091040260200160405190810160405280939291908181526020018383808284375f9201829052509385525050504267ffffffffffffffff1660208084019190915260016040938401819052888352600280835292849020855181559185015190820180547fffffffffffffffffffffffff00000000000000000000000000000000000000009081166001600160a01b03938416179091559385015192820180548516938216939093179092556060840151600382018054909416921691909117909155608082015160048201906112949082612ce9565b5060a08201516005918201805460c090940151151568010000000000000000027fffffffffffffffffffffffffffffffffffffffffffffff00000000000000000090941667ffffffffffffffff90921691909117929092179091556001600160a01b038481165f908152600360209081526040808320899055338084526004808452828520805460018181018355918752949095209093018a9055855490930190945592517f23b872dd00000000000000000000000000000000000000000000000000000000815230938101939093526024830152604482018690527f000000000000000000000000000000000000000000000000000000000000000016906323b872dd906064015f604051808303815f87803b1580156113b3575f80fd5b505af11580156113c5573d5f803e3d5ffd5b5050505060a085013515611472576040517f70a082310000000000000000000000000000000000000000000000000000000081523060048201525f906001600160a01b038516906370a0823190602401602060405180830381865afa158015611430573d5f803e3d5ffd5b505050506040513d601f19601f820116820180604052508101906114549190612de2565b90508015611470576114706001600160a01b03851633836124b1565b505b8181111561148d5761148d336114888484612cab565b612504565b336001600160a01b038416857f108677cd331f90a71e647c1c7dcaeb6453370dbc57a0fb87ae0114458d714c406114c48980612c4a565b6114d160208c018c612c4a565b6114de60408e018e612c4a565b8e80606001906114ee9190612c4a565b604051611502989796959493929190612df9565b60405180910390a4505061153560017f9b779b17422d0df92223018b32b4d1fa46e071723d6817e2486d003becc55f0055565b915091565b5f818152600260205260408120600101546001600160a01b03168061158e576040517fd03994810000000000000000000000000000000000000000000000000000000081526004810184905260240161074d565b6040517f68a4c8b70000000000000000000000000000000000000000000000000000000081526001600160a01b0382811660048301527f000000000000000000000000000000000000000000000000000000000000000016906368a4c8b790602401602060405180830381865afa15801561160b573d5f803e3d5ffd5b505050506040513d601f19601f8201168201806040525081019061162f9190612e58565b9392505050565b604080515f80825260208201928390527f81bbba5800000000000000000000000000000000000000000000000000000000909252819081907f00000000000000000000000000000000000000000000000000000000000000006001600160a01b03166381bbba586116ab878460248101612e77565b606060405180830381865afa1580156116c6573d5f803e3d5ffd5b505050506040513d601f19601f820116820180604052508101906116ea9190612eea565b935093509350509193909250565b61170182611f5d565b6040517f6352211e0000000000000000000000000000000000000000000000000000000081526004810183905233906001600160a01b037f00000000000000000000000000000000000000000000000000000000000000001690636352211e90602401602060405180830381865afa15801561177f573d5f803e3d5ffd5b505050506040513d601f19601f820116820180604052508101906117a39190612a83565b6001600160a01b0316146117ec576040517f40c88f780000000000000000000000000000000000000000000000000000000081526004810183905233602482015260440161074d565b6001600160a01b03811661182c576040517ffdc1409100000000000000000000000000000000000000000000000000000000815260040160405180910390fd5b5f8281526002602090815260409182902060030180547fffffffffffffffffffffffff0000000000000000000000000000000000000000166001600160a01b038516908117909155915191825283917fe0ff476e22f4d69e3d480837eed3c09426d182a1e7c32190fdf01fa0da8b116d910160405180910390a25050565b5f818152600260205260408120600101546001600160a01b0316806118fe576040517fd03994810000000000000000000000000000000000000000000000000000000081526004810184905260240161074d565b6040517faef765010000000000000000000000000000000000000000000000000000000081526001600160a01b0382811660048301527f0000000000000000000000000000000000000000000000000000000000000000169063aef7650190602401602060405180830381865afa15801561197b573d5f803e3d5ffd5b505050506040513d601f19601f8201168201806040525081019061162f9190612de2565b6001600160a01b0381165f908152600460209081526040918290208054835181840281018401909452808452606093928301828280156119fc57602002820191905f5260205f20905b8154815260200190600101908083116119e8575b50505050509050919050565b611a10611fb1565b600180546001600160a01b0383167fffffffffffffffffffffffff00000000000000000000000000000000000000009091168117909155611a585f546001600160a01b031690565b6001600160a01b03167f38d16b8cac22d99fc7c124b9cd0de2d3fa1faef420bfe791d8c362d765e2270060405160405180910390a350565b611a9981611f5d565b6040517f6352211e0000000000000000000000000000000000000000000000000000000081526004810182905233906001600160a01b037f00000000000000000000000000000000000000000000000000000000000000001690636352211e90602401602060405180830381865afa158015611b17573d5f803e3d5ffd5b505050506040513d601f19601f82011682018060405250810190611b3b9190612a83565b6001600160a01b031614611b84576040517f40c88f780000000000000000000000000000000000000000000000000000000081526004810182905233602482015260440161074d565b5f8181526002602052604090206005015468010000000000000000900460ff1615611bde576040517f95d15bf60000000000000000000000000000000000000000000000000000000081526004810182905260240161074d565b5f8181526002602052604080822060050180547fffffffffffffffffffffffffffffffffffffffffffffff00ffffffffffffffff16680100000000000000001790555182917f7cce21c1f4552995dccace889e9ad45febf59c654d3fd1d7ab0457fa1439aa2c91a250565b5f611c52612106565b611c5a612134565b5f849003611c94576040517fb6eeadb200000000000000000000000000000000000000000000000000000000815260040160405180910390fd5b611ca085858585612189565b90506040518060e001604052808281526020015f6001600160a01b03168152602001336001600160a01b03168152602001336001600160a01b0316815260200184848080601f0160208091040260200160405190810160405280939291908181526020018383808284375f9201829052509385525050504267ffffffffffffffff1660208084019190915260016040938401819052858352600280835292849020855181559185015190820180547fffffffffffffffffffffffff00000000000000000000000000000000000000009081166001600160a01b0393841617909155938501519282018054851693821693909317909255606084015160038201805490941692169190911790915560808201516004820190611dc19082612ce9565b5060a08201516005918201805460c090940151151568010000000000000000027fffffffffffffffffffffffffffffffffffffffffffffff00000000000000000090941667ffffffffffffffff9092169190911792909217909155335f818152600460208181526040808420805460018181018355918652929094209091018690558454909201909355517f23b872dd00000000000000000000000000000000000000000000000000000000815230928101929092526024820152604481018290527f00000000000000000000000000000000000000000000000000000000000000006001600160a01b0316906323b872dd906064015f604051808303815f87803b158015611ece575f80fd5b505af1158015611ee0573d5f803e3d5ffd5b50505050336001600160a01b0316817f1fa075d34b5040b9bc683d1cc54ae270f345511dd00e1b9f68e82fd47b16f52487878787604051611f249493929190612f3b565b60405180910390a3611f5560017f9b779b17422d0df92223018b32b4d1fa46e071723d6817e2486d003becc55f0055565b949350505050565b5f81815260026020819052604090912001546001600160a01b0316611032576040517f1a720b3b0000000000000000000000000000000000000000000000000000000081526004810182905260240161074d565b5f546001600160a01b03163314610c12576040517f118cdaa700000000000000000000000000000000000000000000000000000000815233600482015260240161074d565b611ffe61258d565b600180547fffffffffffffffffffffff00ffffffffffffffffffffffffffffffffffffffff1690557f5db9ee0a495bf2e6ff9c91a7834c1ba4fdd244a5e8aa4e537bd38aeae4b073aa335b6040516001600160a01b03909116815260200160405180910390a1565b600180547fffffffffffffffffffffffff0000000000000000000000000000000000000000169055611032816125e1565b61209f612134565b600180547fffffffffffffffffffffff00ffffffffffffffffffffffffffffffffffffffff16740100000000000000000000000000000000000000001790557f62e78cea01bee320cd4e420270b5ea74000d11b0c9f74754ebdbfc544b05a2586120493390565b61210e612648565b60027f9b779b17422d0df92223018b32b4d1fa46e071723d6817e2486d003becc55f0055565b60015474010000000000000000000000000000000000000000900460ff1615610c12576040517fd93c066500000000000000000000000000000000000000000000000000000000815260040160405180910390fd5b6040805160018082528183019092525f91829190816020015b60408051808201909152606080825260208201528152602001906001900390816121a25750506040805160808101825260088183019081527f656e64706f696e740000000000000000000000000000000000000000000000006060830152815290519192509060208083019161221c918891889101612c37565b604051602081830303815290604052815250815f8151811061224057612240612f6c565b60209081029190910101526040517f8ea422860000000000000000000000000000000000000000000000000000000081526001600160a01b037f00000000000000000000000000000000000000000000000000000000000000001690638ea42286906122b490899089908690600401612f99565b6020604051808303815f875af11580156122d0573d5f803e3d5ffd5b505050506040513d601f19601f820116820180604052508101906122f49190612de2565b9695505050505050565b5f806040518060c0016040528084806040019061231b9190612c4a565b8080601f0160208091040260200160405190810160405280939291908181526020018383808284375f920191909152505050908252506020016123616060860186612c4a565b8080601f0160208091040260200160405190810160405280939291908181526020018383808284375f920191909152505050908252506020016123a76080860186612c4a565b8080601f0160208091040260200160405190810160405280939291908181526020018383808284375f9201919091525050509082525060a0850135602082015260c08501356040808301919091526001606090920191909152517fba12cd8d0000000000000000000000000000000000000000000000000000000081529091506001600160a01b037f0000000000000000000000000000000000000000000000000000000000000000169063ba12cd8d903490612468908590600401613037565b604080518083038185885af1158015612483573d5f803e3d5ffd5b50505050506040513d601f19601f820116820180604052508101906124a891906130bb565b50949350505050565b6124be83838360016126a3565b6124ff576040517f5274afe70000000000000000000000000000000000000000000000000000000081526001600160a01b038416600482015260240161074d565b505050565b5f826001600160a01b0316826040515f6040518083038185875af1925050503d805f811461254d576040519150601f19603f3d011682016040523d82523d5f602084013e612552565b606091505b50509050806124ff576040517f240cfbd100000000000000000000000000000000000000000000000000000000815260040160405180910390fd5b60015474010000000000000000000000000000000000000000900460ff16610c12576040517f8dfc202b00000000000000000000000000000000000000000000000000000000815260040160405180910390fd5b5f80546001600160a01b038381167fffffffffffffffffffffffff0000000000000000000000000000000000000000831681178455604051919092169283917f8be0079c531659141344cd1fd0a4f28419497f9722a3daafe3b4186f6b6457e09190a35050565b7f9b779b17422d0df92223018b32b4d1fa46e071723d6817e2486d003becc55f0054600203610c12576040517f3ee5aeb500000000000000000000000000000000000000000000000000000000815260040160405180910390fd5b6040517fa9059cbb000000000000000000000000000000000000000000000000000000005f8181526001600160a01b038616600452602485905291602083604481808b5af1925060015f51148316612712578383151615612706573d5f823e3d81fd5b5f873b113d1516831692505b60405250949350505050565b6001600160a01b0381168114611032575f80fd5b5f60208284031215612742575f80fd5b813561162f8161271e565b5f81518084528060208401602086015e5f602082860101526020601f19601f83011685010191505092915050565b60208152815160208201526001600160a01b0360208301511660408201526001600160a01b0360408301511660608201526001600160a01b0360608301511660808201525f608083015160e060a08401526127da61010084018261274d565b905060a08401516127f760c085018267ffffffffffffffff169052565b5060c084015180151560e0850152509392505050565b5f6020828403121561281d575f80fd5b5035919050565b5f8083601f840112612834575f80fd5b50813567ffffffffffffffff81111561284b575f80fd5b602083019150836020828501011115612862575f80fd5b9250929050565b5f805f805f6080868803121561287d575f80fd5b85356128888161271e565b945060208601356128988161271e565b935060408601359250606086013567ffffffffffffffff8111156128ba575f80fd5b6128c688828901612824565b969995985093965092949392505050565b5f80604083850312156128e8575f80fd5b8235915060208301356128fa8161271e565b809150509250929050565b5f805f60408486031215612917575f80fd5b83359250602084013567ffffffffffffffff811115612934575f80fd5b61294086828701612824565b9497909650939450505050565b5f6020828403121561295d575f80fd5b813567ffffffffffffffff811115612973575f80fd5b820160e0818503121561162f575f80fd5b602080825282518282018190525f918401906040840190835b818110156129bb57835183526020938401939092019160010161299d565b509095945050505050565b5f805f80604085870312156129d9575f80fd5b843567ffffffffffffffff8111156129ef575f80fd5b6129fb87828801612824565b909550935050602085013567ffffffffffffffff811115612a1a575f80fd5b612a2687828801612824565b95989497509550505050565b600181811c90821680612a4657607f821691505b602082108103612a7d577f4e487b71000000000000000000000000000000000000000000000000000000005f52602260045260245ffd5b50919050565b5f60208284031215612a93575f80fd5b815161162f8161271e565b7f4e487b71000000000000000000000000000000000000000000000000000000005f52604160045260245ffd5b601f8211156124ff57805f5260205f20601f840160051c81016020851015612af05750805b601f840160051c820191505b81811015612b0f575f8155600101612afc565b5050505050565b67ffffffffffffffff831115612b2e57612b2e612a9e565b612b4283612b3c8354612a32565b83612acb565b5f601f841160018114612b92575f8515612b5c5750838201355b7fffffffffffffffffffffffffffffffffffffffffffffffffffffffffffffffff600387901b1c1916600186901b178355612b0f565b5f83815260208120601f198716915b82811015612bc15786850135825560209485019460019092019101612ba1565b5086821015612bfc577fffffffffffffffffffffffffffffffffffffffffffffffffffffffffffffffff60f88860031b161c19848701351681555b505060018560011b0183555050505050565b81835281816020850137505f602082840101525f6020601f19601f840116840101905092915050565b602081525f611f55602083018486612c0e565b5f8083357fffffffffffffffffffffffffffffffffffffffffffffffffffffffffffffffe1843603018112612c7d575f80fd5b83018035915067ffffffffffffffff821115612c97575f80fd5b602001915036819003821315612862575f80fd5b81810381811115612ce3577f4e487b71000000000000000000000000000000000000000000000000000000005f52601160045260245ffd5b92915050565b815167ffffffffffffffff811115612d0357612d03612a9e565b612d1781612d118454612a32565b84612acb565b6020601f821160018114612d68575f8315612d325750848201515b7fffffffffffffffffffffffffffffffffffffffffffffffffffffffffffffffff600385901b1c1916600184901b178455612b0f565b5f84815260208120601f198516915b82811015612d975787850151825560209485019460019092019101612d77565b5084821015612dd357868401517fffffffffffffffffffffffffffffffffffffffffffffffffffffffffffffffff600387901b60f8161c191681555b50505050600190811b01905550565b5f60208284031215612df2575f80fd5b5051919050565b608081525f612e0c608083018a8c612c0e565b8281036020840152612e1f81898b612c0e565b90508281036040840152612e34818789612c0e565b90508281036060840152612e49818587612c0e565b9b9a5050505050505050505050565b5f60208284031215612e68575f80fd5b8151801515811461162f575f80fd5b5f608082018483526080602084015280845180835260a0850191506020860192505f5b81811015612ec15783516001600160a01b0316835260209384019390920191600101612e9a565b505083810391508160408501525f81526020820160608501526122f4602082015f815260200190565b5f805f60608486031215612efc575f80fd5b835167ffffffffffffffff81168114612f13575f80fd5b60208501516040860151919450925060ff81168114612f30575f80fd5b809150509250925092565b604081525f612f4e604083018688612c0e565b8281036020840152612f61818587612c0e565b979650505050505050565b7f4e487b71000000000000000000000000000000000000000000000000000000005f52603260045260245ffd5b604081525f612fac604083018587612c0e565b828103602084015280845180835260208301915060208160051b840101602087015f5b8381101561302857601f198684030185528151805160408552612ff5604086018261274d565b9050602082015191508481036020860152613010818361274d565b60209788019790955093909301925050600101612fcf565b50909998505050505050505050565b602081525f825160c0602084015261305260e084018261274d565b90506020840151601f1984830301604085015261306f828261274d565b9150506040840151601f1984830301606085015261308d828261274d565b91505060608401516080840152608084015160a084015260ff60a08501511660c08401528091505092915050565b5f80604083850312156130cc575f80fd5b82516130d78161271e565b60208401519092506128fa8161271e56fea2646970667358221220949fbd4219571b99d864a4e56304ea6478ac4b0c78d3d58b952d09278351a92264736f6c634300081a0033","linkReferences":{}},"methodIdentifiers":{"acceptOwnership()":"79ba5097","agentExists(uint256)":"de99f157","bondingCurveRouter()":"33c9cef6","deactivateAgent(uint256)":"11ba6b4a","getAgent(uint256)":"2de5aaf7","getAgentByToken(address)":"04ac6ee4","getAgentReputation(uint256)":"cb43091f","getAgentsByCreator(address)":"e246578c","getTokenProgress(uint256)":"e1e6261a","identityRegistry()":"134e18f4","isAgentToken(address)":"1640af1e","isTokenGraduated(uint256)":"b4e9fe9f","launchAgent((string,string,string,string,string,uint256,bytes32))":"98cefe77","lens()":"112666b7","linkToken(uint256,address)":"47e443a9","onERC721Received(address,address,uint256,bytes)":"150b7a02","owner()":"8da5cb5b","pause()":"8456cb59","paused()":"5c975abb","pendingOwner()":"e30c3978","reactivateAgent(uint256)":"fd610317","registerAgent(string,string)":"ff17aca4","renounceOwnership()":"715018a6","reputationRegistry()":"c8db44e3","tokenToAgent(address)":"cece8f98","totalAgents()":"c5053712","transferOwnership(address)":"f2fde38b","unpause()":"3f4ba83a","updateAgentWallet(uint256,address)":"ce1c7d1e","updateEndpoint(uint256,string)":"54fec772"},"id":46}