{"abi":[{"type":"constructor","inputs":[{"name":"_reputationRegistry","type":"address","internalType":"address"},{"name":"_factory","type":"address","internalType":"address"}],"stateMutability":"nonpayable"},{"type":"function","name":"MAX_SCORE","inputs":[],"outputs":[{"name":"","type":"int128","internalType":"int128"}],"stateMutability":"view"},{"type":"function","name":"MIN_SCORE","inputs":[],"outputs":[{"name":"","type":"int128","internalType":"int128"}],"stateMutability":"view"},{"type":"function","name":"VALUE_DECIMALS","inputs":[],"outputs":[{"name":"","type":"uint8","internalType":"uint8"}],"stateMutability":"view"},{"type":"function","name":"factory","inputs":[],"outputs":[{"name":"","type":"address","internalType":"contract AgentFactory"}],"stateMutability":"view"},{"type":"function","name":"rateAgent","inputs":[{"name":"agentId","type":"uint256","internalType":"uint256"},{"name":"score","type":"int128","internalType":"int128"},{"name":"tag1","type":"string","internalType":"string"},{"name":"tag2","type":"string","internalType":"string"},{"name":"feedbackURI","type":"string","internalType":"string"},{"name":"feedbackHash","type":"bytes32","internalType":"bytes32"}],"outputs":[],"stateMutability":"nonpayable"},{"type":"function","name":"reputationRegistry","inputs":[],"outputs":[{"name":"","type":"address","internalType":"contract IReputationRegistry"}],"stateMutability":"view"},{"type":"event","name":"AgentRated","inputs":[{"name":"agentId","type":"uint256","indexed":true,"internalType":"uint256"},{"name":"rater","type":"address","indexed":true,"internalType":"address"},{"name":"score","type":"int128","indexed":false,"internalType":"int128"},{"name":"tag1","type":"string","indexed":false,"internalType":"string"},{"name":"tag2","type":"string","indexed":false,"internalType":"string"},{"name":"feedbackHash","type":"bytes32","indexed":false,"internalType":"bytes32"}],"anonymous":false},{"type":"error","name":"AgentRating__AgentNotActive","inputs":[{"name":"agentId","type":"uint256","internalType":"uint256"}]},{"type":"error","name":"AgentRating__EmptyTag","inputs":[]},{"type":"error","name":"AgentRating__ScoreOutOfRange","inputs":[{"name":"score","type":"int128","internalType":"int128"}]},{"type":"error","name":"AgentRating__ZeroAddress","inputs":[]}],"bytecode":{"object":"0x60c060405234801561000f575f80fd5b506040516109ac3803806109ac83398101604081905261002e916100ae565b6001600160a01b038216610055576040516332a762a360e21b815260040160405180910390fd5b6001600160a01b03811661007c576040516332a762a360e21b815260040160405180910390fd5b6001600160a01b039182166080521660a0526100df565b80516001600160a01b03811681146100a9575f80fd5b919050565b5f80604083850312156100bf575f80fd5b6100c883610093565b91506100d660208401610093565b90509250929050565b60805160a05161089f61010d5f395f818160d0015261020301525f818161011c0152610323015261089f5ff3fe608060405234801561000f575f80fd5b506004361061006f575f3560e01c8063b02f2a831161004d578063b02f2a83146100b6578063c45a0155146100cb578063c8db44e314610117575f80fd5b806327ff62231461007357806340b8927014610094578063ad4ce55a1461009c575b5f80fd5b61007c6101f481565b604051600f9190910b81526020015b60405180910390f35b61007c606481565b6100a4600281565b60405160ff909116815260200161008b565b6100c96100c4366004610442565b61013e565b005b6100f27f000000000000000000000000000000000000000000000000000000000000000081565b60405173ffffffffffffffffffffffffffffffffffffffff909116815260200161008b565b6100f27f000000000000000000000000000000000000000000000000000000000000000081565b6064600f89900b128061015657506101f4600f89900b135b15610198576040517f12abedcc000000000000000000000000000000000000000000000000000000008152600f89900b60048201526024015b60405180910390fd5b5f8690036101d2576040517feb36fd0b00000000000000000000000000000000000000000000000000000000815260040160405180910390fd5b6040517f2de5aaf7000000000000000000000000000000000000000000000000000000008152600481018a90525f907f000000000000000000000000000000000000000000000000000000000000000073ffffffffffffffffffffffffffffffffffffffff1690632de5aaf7906024015f60405180830381865afa15801561025c573d5f803e3d5ffd5b505050506040513d5f823e601f3d9081017fffffffffffffffffffffffffffffffffffffffffffffffffffffffffffffffe01682016040526102a19190810190610656565b90508060c001516102e1576040517fbedaf65b000000000000000000000000000000000000000000000000000000008152600481018b905260240161018f565b60808101516040517f3c036a7e00000000000000000000000000000000000000000000000000000000815273ffffffffffffffffffffffffffffffffffffffff7f00000000000000000000000000000000000000000000000000000000000000001691633c036a7e9161036b918e918e916002918f918f918f918f918f908f908f90600401610768565b5f604051808303815f87803b158015610382575f80fd5b505af1158015610394573d5f803e3d5ffd5b505050503373ffffffffffffffffffffffffffffffffffffffff168a7fa708a4d629722504b6add9418f67ba2ae16ee6c4a6535817fd5fd15feb2243938b8b8b8b8b896040516103e996959493929190610826565b60405180910390a350505050505050505050565b5f8083601f84011261040d575f80fd5b50813567ffffffffffffffff811115610424575f80fd5b60208301915083602082850101111561043b575f80fd5b9250929050565b5f805f805f805f805f60c08a8c03121561045a575f80fd5b8935985060208a0135600f81900b8114610472575f80fd5b975060408a013567ffffffffffffffff81111561048d575f80fd5b6104998c828d016103fd565b90985096505060608a013567ffffffffffffffff8111156104b8575f80fd5b6104c48c828d016103fd565b90965094505060808a013567ffffffffffffffff8111156104e3575f80fd5b6104ef8c828d016103fd565b9a9d999c50979a9699959894979660a00135949350505050565b7f4e487b71000000000000000000000000000000000000000000000000000000005f52604160045260245ffd5b60405160e0810167ffffffffffffffff8111828210171561055957610559610509565b60405290565b805173ffffffffffffffffffffffffffffffffffffffff81168114610582575f80fd5b919050565b5f82601f830112610596575f80fd5b815167ffffffffffffffff8111156105b0576105b0610509565b604051601f82017fffffffffffffffffffffffffffffffffffffffffffffffffffffffffffffffe0908116603f0116810167ffffffffffffffff811182821017156105fd576105fd610509565b604052818152838201602001851015610614575f80fd5b8160208501602083015e5f918101602001919091529392505050565b805167ffffffffffffffff81168114610582575f80fd5b80518015158114610582575f80fd5b5f60208284031215610666575f80fd5b815167ffffffffffffffff81111561067c575f80fd5b820160e0818503121561068d575f80fd5b610695610536565b815181526106a56020830161055f565b60208201526106b66040830161055f565b60408201526106c76060830161055f565b6060820152608082015167ffffffffffffffff8111156106e5575f80fd5b6106f186828501610587565b60808301525061070360a08301610630565b60a082015261071460c08301610647565b60c0820152949350505050565b81835281816020850137505f602082840101525f60207fffffffffffffffffffffffffffffffffffffffffffffffffffffffffffffffe0601f840116840101905092915050565b8b81528a600f0b602082015260ff8a16604082015261010060608201525f61079561010083018a8c610721565b82810360808401526107a881898b610721565b905082810360a084015286518082528060208901602084015e5f602082840101527fffffffffffffffffffffffffffffffffffffffffffffffffffffffffffffffe0601f820116820191505060208382030160c084015261080d602082018688610721565b9150508260e08301529c9b505050505050505050505050565b86600f0b8152608060208201525f610842608083018789610721565b8281036040840152610855818688610721565b91505082606083015297965050505050505056fea2646970667358221220c6cd80046b84aab1e75eb4500eb36835078618b1cf1ac8ab6efccbd536d8312864736f6c634300081a0033","linkReferences":{}},"methodIdentifiers":{"MAX_SCORE()":"27ff6223","MIN_SCORE()":"40b89270","VALUE_DECIMALS()":"ad4ce55a","factory()":"c45a0155","rateAgent(uint256,int128,string,string,string,bytes32)":"b02f2a83","reputationRegistry()":"c8db44e3"},"id":47}