{"abi":[{"type":"constructor","inputs":[{"name":"_factory","type":"address","internalType":"address"},{"name":"_treasury","type":"address","internalType":"address"},{"name":"_platformFeeBps","type":"uint256","internalType":"uint256"},{"name":"_buybackBps","type":"uint256","internalType":"uint256"},{"name":"_supportedTokens","type":"address[]","internalType":"address[]"},{"name":"_owner","type":"address","internalType":"address"}],"stateMutability":"nonpayable"},{"type":"function","name":"BPS_DENOMINATOR","inputs":[],"outputs":[{"name":"","type":"uint256","internalType":"uint256"}],"stateMutability":"view"},{"type":"function","name":"MAX_BUYBACK_BPS","inputs":[],"outputs":[{"name":"","type":"uint256","internalType":"uint256"}],"stateMutability":"view"},{"type":"function","name":"MAX_PLATFORM_FEE_BPS","inputs":[],"outputs":[{"name":"","type":"uint256","internalType":"uint256"}],"stateMutability":"view"},{"type":"function","name":"acceptOwnership","inputs":[],"outputs":[],"stateMutability":"nonpayable"},{"type":"function","name":"addSupportedToken","inputs":[{"name":"token","type":"address","internalType":"address"}],"outputs":[],"stateMutability":"nonpayable"},{"type":"function","name":"buybackBps","inputs":[],"outputs":[{"name":"","type":"uint256","internalType":"uint256"}],"stateMutability":"view"},{"type":"function","name":"depositRevenue","inputs":[{"name":"agentId","type":"uint256","internalType":"uint256"},{"name":"paymentToken","type":"address","internalType":"address"},{"name":"amount","type":"uint256","internalType":"uint256"}],"outputs":[],"stateMutability":"nonpayable"},{"type":"function","name":"distribute","inputs":[{"name":"agentId","type":"uint256","internalType":"uint256"},{"name":"paymentToken","type":"address","internalType":"address"}],"outputs":[],"stateMutability":"nonpayable"},{"type":"function","name":"factory","inputs":[],"outputs":[{"name":"","type":"address","internalType":"contract AgentFactory"}],"stateMutability":"view"},{"type":"function","name":"getAvailableBuyback","inputs":[{"name":"agentId","type":"uint256","internalType":"uint256"},{"name":"paymentToken","type":"address","internalType":"address"}],"outputs":[{"name":"","type":"uint256","internalType":"uint256"}],"stateMutability":"view"},{"type":"function","name":"getRevenue","inputs":[{"name":"agentId","type":"uint256","internalType":"uint256"},{"name":"paymentToken","type":"address","internalType":"address"}],"outputs":[{"name":"","type":"tuple","internalType":"struct RevenueRouter.RevenueRecord","components":[{"name":"totalDeposited","type":"uint256","internalType":"uint256"},{"name":"totalDistributed","type":"uint256","internalType":"uint256"},{"name":"buybackAccrued","type":"uint256","internalType":"uint256"},{"name":"buybackWithdrawn","type":"uint256","internalType":"uint256"},{"name":"lastDistributionAt","type":"uint64","internalType":"uint64"}]}],"stateMutability":"view"},{"type":"function","name":"getUndistributed","inputs":[{"name":"agentId","type":"uint256","internalType":"uint256"},{"name":"paymentToken","type":"address","internalType":"address"}],"outputs":[{"name":"","type":"uint256","internalType":"uint256"}],"stateMutability":"view"},{"type":"function","name":"identityRegistry","inputs":[],"outputs":[{"name":"","type":"address","internalType":"contract IIdentityRegistry"}],"stateMutability":"view"},{"type":"function","name":"owner","inputs":[],"outputs":[{"name":"","type":"address","internalType":"address"}],"stateMutability":"view"},{"type":"function","name":"pause","inputs":[],"outputs":[],"stateMutability":"nonpayable"},{"type":"function","name":"paused","inputs":[],"outputs":[{"name":"","type":"bool","internalType":"bool"}],"stateMutability":"view"},{"type":"function","name":"pendingOwner","inputs":[],"outputs":[{"name":"","type":"address","internalType":"address"}],"stateMutability":"view"},{"type":"function","name":"platformFeeBps","inputs":[],"outputs":[{"name":"","type":"uint256","internalType":"uint256"}],"stateMutability":"view"},{"type":"function","name":"removeSupportedToken","inputs":[{"name":"token","type":"address","internalType":"address"}],"outputs":[],"stateMutability":"nonpayable"},{"type":"function","name":"renounceOwnership","inputs":[],"outputs":[],"stateMutability":"nonpayable"},{"type":"function","name":"rescueTokens","inputs":[{"name":"token","type":"address","internalType":"address"},{"name":"to","type":"address","internalType":"address"},{"name":"amount","type":"uint256","internalType":"uint256"}],"outputs":[],"stateMutability":"nonpayable"},{"type":"function","name":"setBuybackBps","inputs":[{"name":"newBps","type":"uint256","internalType":"uint256"}],"outputs":[],"stateMutability":"nonpayable"},{"type":"function","name":"setPlatformFeeBps","inputs":[{"name":"newBps","type":"uint256","internalType":"uint256"}],"outputs":[],"stateMutability":"nonpayable"},{"type":"function","name":"setTreasury","inputs":[{"name":"newTreasury","type":"address","internalType":"address"}],"outputs":[],"stateMutability":"nonpayable"},{"type":"function","name":"supportedTokens","inputs":[{"name":"","type":"address","internalType":"address"}],"outputs":[{"name":"","type":"bool","internalType":"bool"}],"stateMutability":"view"},{"type":"function","name":"transferOwnership","inputs":[{"name":"newOwner","type":"address","internalType":"address"}],"outputs":[],"stateMutability":"nonpayable"},{"type":"function","name":"treasury","inputs":[],"outputs":[{"name":"","type":"address","internalType":"address"}],"stateMutability":"view"},{"type":"function","name":"unpause","inputs":[],"outputs":[],"stateMutability":"nonpayable"},{"type":"function","name":"withdrawBuybackFunds","inputs":[{"name":"agentId","type":"uint256","internalType":"uint256"},{"name":"paymentToken","type":"address","internalType":"address"},{"name":"to","type":"address","internalType":"address"}],"outputs":[],"stateMutability":"nonpayable"},{"type":"event","name":"BuybackBpsUpdated","inputs":[{"name":"oldBps","type":"uint256","indexed":false,"internalType":"uint256"},{"name":"newBps","type":"uint256","indexed":false,"internalType":"uint256"}],"anonymous":false},{"type":"event","name":"BuybackWithdrawn","inputs":[{"name":"agentId","type":"uint256","indexed":true,"internalType":"uint256"},{"name":"paymentToken","type":"address","indexed":true,"internalType":"address"},{"name":"amount","type":"uint256","indexed":false,"internalType":"uint256"},{"name":"to","type":"address","indexed":true,"internalType":"address"}],"anonymous":false},{"type":"event","name":"OwnershipTransferStarted","inputs":[{"name":"previousOwner","type":"address","indexed":true,"internalType":"address"},{"name":"newOwner","type":"address","indexed":true,"internalType":"address"}],"anonymous":false},{"type":"event","name":"OwnershipTransferred","inputs":[{"name":"previousOwner","type":"address","indexed":true,"internalType":"address"},{"name":"newOwner","type":"address","indexed":true,"internalType":"address"}],"anonymous":false},{"type":"event","name":"Paused","inputs":[{"name":"account","type":"address","indexed":false,"internalType":"address"}],"anonymous":false},{"type":"event","name":"PlatformFeeUpdated","inputs":[{"name":"oldBps","type":"uint256","indexed":false,"internalType":"uint256"},{"name":"newBps","type":"uint256","indexed":false,"internalType":"uint256"}],"anonymous":false},{"type":"event","name":"RevenueDeposited","inputs":[{"name":"agentId","type":"uint256","indexed":true,"internalType":"uint256"},{"name":"paymentToken","type":"address","indexed":true,"internalType":"address"},{"name":"amount","type":"uint256","indexed":false,"internalType":"uint256"},{"name":"from","type":"address","indexed":true,"internalType":"address"}],"anonymous":false},{"type":"event","name":"RevenueDistributed","inputs":[{"name":"agentId","type":"uint256","indexed":true,"internalType":"uint256"},{"name":"paymentToken","type":"address","indexed":true,"internalType":"address"},{"name":"agentShare","type":"uint256","indexed":false,"internalType":"uint256"},{"name":"buybackShare","type":"uint256","indexed":false,"internalType":"uint256"},{"name":"platformFee","type":"uint256","indexed":false,"internalType":"uint256"}],"anonymous":false},{"type":"event","name":"TokenAdded","inputs":[{"name":"token","type":"address","indexed":true,"internalType":"address"}],"anonymous":false},{"type":"event","name":"TokenRemoved","inputs":[{"name":"token","type":"address","indexed":true,"internalType":"address"}],"anonymous":false},{"type":"event","name":"TreasuryUpdated","inputs":[{"name":"oldTreasury","type":"address","indexed":false,"internalType":"address"},{"name":"newTreasury","type":"address","indexed":false,"internalType":"address"}],"anonymous":false},{"type":"event","name":"Unpaused","inputs":[{"name":"account","type":"address","indexed":false,"internalType":"address"}],"anonymous":false},{"type":"error","name":"EnforcedPause","inputs":[]},{"type":"error","name":"ExpectedPause","inputs":[]},{"type":"error","name":"OwnableInvalidOwner","inputs":[{"name":"owner","type":"address","internalType":"address"}]},{"type":"error","name":"OwnableUnauthorizedAccount","inputs":[{"name":"account","type":"address","internalType":"address"}]},{"type":"error","name":"ReentrancyGuardReentrantCall","inputs":[]},{"type":"error","name":"RevenueRouter__AgentNotActive","inputs":[{"name":"agentId","type":"uint256","internalType":"uint256"}]},{"type":"error","name":"RevenueRouter__FeeTooHigh","inputs":[{"name":"bps","type":"uint256","internalType":"uint256"}]},{"type":"error","name":"RevenueRouter__NotAgentOwner","inputs":[{"name":"agentId","type":"uint256","internalType":"uint256"},{"name":"caller","type":"address","internalType":"address"}]},{"type":"error","name":"RevenueRouter__NothingToDistribute","inputs":[{"name":"agentId","type":"uint256","internalType":"uint256"},{"name":"token","type":"address","internalType":"address"}]},{"type":"error","name":"RevenueRouter__NothingToWithdraw","inputs":[{"name":"agentId","type":"uint256","internalType":"uint256"},{"name":"token","type":"address","internalType":"address"}]},{"type":"error","name":"RevenueRouter__TokenAlreadySupported","inputs":[{"name":"token","type":"address","internalType":"address"}]},{"type":"error","name":"RevenueRouter__TokenNotSupported","inputs":[{"name":"token","type":"address","internalType":"address"}]},{"type":"error","name":"RevenueRouter__UnsupportedToken","inputs":[{"name":"token","type":"address","internalType":"address"}]},{"type":"error","name":"RevenueRouter__ZeroAddress","inputs":[]},{"type":"error","name":"RevenueRouter__ZeroAmount","inputs":[]},{"type":"error","name":"SafeERC20FailedOperation","inputs":[{"name":"token","type":"address","internalType":"address"}]}],"bytecode":{"object":"0x60a060405234801561000f575f80fd5b5060405161208b38038061208b83398101604081905261002e916102fb565b806001600160a01b03811661005d57604051631e4fbdf760e01b81525f60048201526024015b60405180910390fd5b61006681610261565b5060017f9b779b17422d0df92223018b32b4d1fa46e071723d6817e2486d003becc55f00556001600160a01b0386166100b257604051636002d3c560e11b815260040160405180910390fd5b6001600160a01b0385166100d957604051636002d3c560e11b815260040160405180910390fd5b6103e88411156100ff57604051630826475560e31b815260048101859052602401610054565b61138883111561012557604051630826475560e31b815260048101849052602401610054565b6001600160a01b03868116608052600680546001600160a01b031916918716919091179055600484905560058390555f5b8251811015610255575f6001600160a01b031683828151811061017b5761017b61040a565b60200260200101516001600160a01b0316036101aa57604051636002d3c560e11b815260040160405180910390fd5b600160035f8584815181106101c1576101c161040a565b60200260200101516001600160a01b03166001600160a01b031681526020019081526020015f205f6101000a81548160ff0219169083151502179055508281815181106102105761021061040a565b60200260200101516001600160a01b03167f784c8f4dbf0ffedd6e72c76501c545a70f8b203b30a26ce542bf92ba87c248a460405160405180910390a2600101610156565b5050505050505061041e565b600180546001600160a01b031916905561027a8161027d565b50565b5f80546001600160a01b038381166001600160a01b0319831681178455604051919092169283917f8be0079c531659141344cd1fd0a4f28419497f9722a3daafe3b4186f6b6457e09190a35050565b80516001600160a01b03811681146102e2575f80fd5b919050565b634e487b7160e01b5f52604160045260245ffd5b5f805f805f8060c08789031215610310575f80fd5b610319876102cc565b9550610327602088016102cc565b6040880151606089015160808a015192975090955093506001600160401b03811115610351575f80fd5b8701601f81018913610361575f80fd5b80516001600160401b0381111561037a5761037a6102e7565b604051600582901b90603f8201601f191681016001600160401b03811182821017156103a8576103a86102e7565b60405291825260208184018101929081018c8411156103c5575f80fd5b6020850194505b838510156103eb576103dd856102cc565b8152602094850194016103cc565b5094506103fe9250505060a088016102cc565b90509295509295509295565b634e487b7160e01b5f52603260045260245ffd5b608051611c396104525f395f818161038c0152818161043d0152818161084901528181610de901526110340152611c395ff3fe608060405234801561000f575f80fd5b50600436106101c6575f3560e01c80638d01513c116100fe578063c580c9421161009e578063e1fa8b021161006e578063e1fa8b02146103f0578063e30c397814610403578063f0f4426014610414578063f2fde38b14610427575f80fd5b8063c580c942146103ae578063cea9d26f146103c1578063d249e1b8146103d4578063e1a45218146103e7575f80fd5b8063baa9f0fa116100d9578063baa9f0fa14610362578063bb9943f01461036b578063bd1022a11461037e578063c45a015514610387575f80fd5b80638d01513c146102eb5780638da5cb5b146102f4578063ae66305314610304575f80fd5b8063696eb5cd11610169578063763191901161014457806376319190146102b557806379ba5097146102c85780638456cb59146102d05780638c2be7f4146102d8575f80fd5b8063696eb5cd146102875780636d69fcaf1461029a578063715018a6146102ad575f80fd5b80633f4ba83a116101a45780633f4ba83a146102195780635c975abb1461022357806361d027b31461025257806368c4ac2614610265575f80fd5b8063134e18f4146101ca57806322dcd13e146101ef578063386fdf6d14610206575b5f80fd5b6101d261043a565b6040516001600160a01b0390911681526020015b60405180910390f35b6101f860045481565b6040519081526020016101e6565b6101f861021436600461183e565b6104c0565b610221610536565b005b60015474010000000000000000000000000000000000000000900460ff165b60405190151581526020016101e6565b6006546101d2906001600160a01b031681565b61024261027336600461186c565b60036020525f908152604090205460ff1681565b6101f861029536600461183e565b610548565b6102216102a836600461186c565b6105b7565b6102216106ca565b6102216102c336600461186c565b6106db565b6102216107a5565b610221610802565b6102216102e636600461188e565b610812565b6101f86103e881565b5f546001600160a01b03166101d2565b61031761031236600461183e565b610b07565b6040516101e691905f60a0820190508251825260208301516020830152604083015160408301526060830151606083015267ffffffffffffffff608084015116608083015292915050565b6101f860055481565b6102216103793660046118cd565b610ba7565b6101f861138881565b6101d27f000000000000000000000000000000000000000000000000000000000000000081565b6102216103bc3660046118cd565b610c2f565b6102216103cf3660046118e4565b610cb7565b6102216103e2366004611922565b610d13565b6101f861271081565b6102216103fe36600461183e565b610f71565b6001546001600160a01b03166101d2565b61022161042236600461186c565b611247565b61022161043536600461186c565b611310565b5f7f00000000000000000000000000000000000000000000000000000000000000006001600160a01b031663134e18f46040518163ffffffff1660e01b8152600401602060405180830381865afa158015610497573d5f803e3d5ffd5b505050506040513d601f19601f820116820180604052508101906104bb9190611946565b905090565b5f8281526002602081815260408084206001600160a01b03861685528252808420815160a081018352815480825260018301549482018590529482015492810192909252600381015460608301526004015467ffffffffffffffff1660808201529161052c919061198e565b9150505b92915050565b61053e611398565b6105466113dd565b565b5f8281526002602081815260408084206001600160a01b03861685528252808420815160a081018352815481526001820154938101939093529283015490820181905260038301546060830181905260049093015467ffffffffffffffff166080830152909161052c9161198e565b6105bf611398565b6001600160a01b0381166105ff576040517fc005a78a00000000000000000000000000000000000000000000000000000000815260040160405180910390fd5b6001600160a01b0381165f9081526003602052604090205460ff1615610661576040517f0ec377fd0000000000000000000000000000000000000000000000000000000081526001600160a01b03821660048201526024015b60405180910390fd5b6001600160a01b0381165f8181526003602052604080822080547fffffffffffffffffffffffffffffffffffffffffffffffffffffffffffffff00166001179055517f784c8f4dbf0ffedd6e72c76501c545a70f8b203b30a26ce542bf92ba87c248a49190a250565b6106d2611398565b6105465f61144d565b6106e3611398565b6001600160a01b0381165f9081526003602052604090205460ff1661073f576040517f762a68e80000000000000000000000000000000000000000000000000000000081526001600160a01b0382166004820152602401610658565b6001600160a01b0381165f8181526003602052604080822080547fffffffffffffffffffffffffffffffffffffffffffffffffffffffffffffff00169055517f4c910b69fe65a61f7531b9c5042b2329ca7179c77290aa7e2eb3afa3c8511fd39190a250565b60015433906001600160a01b031681146107f6576040517f118cdaa70000000000000000000000000000000000000000000000000000000081526001600160a01b0382166004820152602401610658565b6107ff8161144d565b50565b61080a611398565b61054661147e565b61081a6114ed565b6040517f2de5aaf7000000000000000000000000000000000000000000000000000000008152600481018490527f00000000000000000000000000000000000000000000000000000000000000006001600160a01b031690632de5aaf7906024015f60405180830381865afa158015610895573d5f803e3d5ffd5b505050506040513d5f823e601f3d9081017fffffffffffffffffffffffffffffffffffffffffffffffffffffffffffffffe01682016040526108da9190810190611ad6565b50336108e461043a565b6001600160a01b0316636352211e856040518263ffffffff1660e01b815260040161091191815260200190565b602060405180830381865afa15801561092c573d5f803e3d5ffd5b505050506040513d601f19601f820116820180604052508101906109509190611946565b6001600160a01b031614610999576040517fb73700d200000000000000000000000000000000000000000000000000000000815260048101849052336024820152604401610658565b6001600160a01b0381166109d9576040517fc005a78a00000000000000000000000000000000000000000000000000000000815260040160405180910390fd5b5f8381526002602081815260408084206001600160a01b03871685529091528220600381015491810154909291610a0f9161198e565b9050805f03610a5c576040517fd1ae596f000000000000000000000000000000000000000000000000000000008152600481018690526001600160a01b0385166024820152604401610658565b80826003015f828254610a6f9190611ba1565b90915550610a8990506001600160a01b038516848361151b565b826001600160a01b0316846001600160a01b0316867f6563a366a77e502a24f25c71a84bb0b8b01398278c9cc833e9ac44109929acbd84604051610acf91815260200190565b60405180910390a45050610b0260017f9b779b17422d0df92223018b32b4d1fa46e071723d6817e2486d003becc55f0055565b505050565b610b3e6040518060a001604052805f81526020015f81526020015f81526020015f81526020015f67ffffffffffffffff1681525090565b505f8281526002602081815260408084206001600160a01b0386168552825292839020835160a081018552815481526001820154928101929092529182015492810192909252600381015460608301526004015467ffffffffffffffff16608082015292915050565b610baf611398565b611388811115610bee576040517f41323aa800000000000000000000000000000000000000000000000000000000815260048101829052602401610658565b60055460408051918252602082018390527f8633af7c4f0ff6b7a26f6ddde27f169888f824d57518ce3efb211808f07cc953910160405180910390a1600555565b610c37611398565b6103e8811115610c76576040517f41323aa800000000000000000000000000000000000000000000000000000000815260048101829052602401610658565b60045460408051918252602082018390527fd347e206f25a89b917fc9482f1a2d294d749baa4dc9bde7fb495ee11fe491643910160405180910390a1600455565b610cbf611398565b6001600160a01b038216610cff576040517fc005a78a00000000000000000000000000000000000000000000000000000000815260040160405180910390fd5b610b026001600160a01b038416838361151b565b610d1b6114ed565b610d23611569565b6001600160a01b0382165f9081526003602052604090205460ff16610d7f576040517f62482cae0000000000000000000000000000000000000000000000000000000081526001600160a01b0383166004820152602401610658565b805f03610db8576040517f36a7da0a00000000000000000000000000000000000000000000000000000000815260040160405180910390fd5b6040517f2de5aaf7000000000000000000000000000000000000000000000000000000008152600481018490525f907f00000000000000000000000000000000000000000000000000000000000000006001600160a01b031690632de5aaf7906024015f60405180830381865afa158015610e35573d5f803e3d5ffd5b505050506040513d5f823e601f3d9081017fffffffffffffffffffffffffffffffffffffffffffffffffffffffffffffffe0168201604052610e7a9190810190611ad6565b90508060c00151610eba576040517ff02d943f00000000000000000000000000000000000000000000000000000000815260048101859052602401610658565b610ecf6001600160a01b0384163330856115be565b5f8481526002602090815260408083206001600160a01b038716845290915281208054849290610f00908490611ba1565b909155505060405182815233906001600160a01b0385169086907ff400aeade3bc8c56d28aa702b45faabc6eabba9a6cf52cfb29dbd7124280887b9060200160405180910390a450610b0260017f9b779b17422d0df92223018b32b4d1fa46e071723d6817e2486d003becc55f0055565b610f796114ed565b610f81611569565b5f8281526002602090815260408083206001600160a01b0385168452909152812060018101548154919291610fb6919061198e565b9050805f03611003576040517f8b531a7e000000000000000000000000000000000000000000000000000000008152600481018590526001600160a01b0384166024820152604401610658565b6040517f2de5aaf7000000000000000000000000000000000000000000000000000000008152600481018590525f907f00000000000000000000000000000000000000000000000000000000000000006001600160a01b031690632de5aaf7906024015f60405180830381865afa158015611080573d5f803e3d5ffd5b505050506040513d5f823e601f3d9081017fffffffffffffffffffffffffffffffffffffffffffffffffffffffffffffffe01682016040526110c59190810190611ad6565b90505f612710600454846110d99190611bb4565b6110e39190611bcb565b90505f6110f0828561198e565b90505f612710600554836111049190611bb4565b61110e9190611bcb565b90505f61111b828461198e565b905085876001015f8282546111309190611ba1565b9250508190555081876002015f82825461114a9190611ba1565b90915550506004870180547fffffffffffffffffffffffffffffffffffffffffffffffff0000000000000000164267ffffffffffffffff1617905583156111a5576006546111a5906001600160a01b038a811691168661151b565b80156111c55760608501516111c5906001600160a01b038a16908361151b565b60408051828152602081018490529081018590526001600160a01b038916908a907fde14a79e0da0e3d8d5f44021c5e64f5a8e68d166d5c1d95329576ed230b5b3b59060600160405180910390a35050505050505061124360017f9b779b17422d0df92223018b32b4d1fa46e071723d6817e2486d003becc55f0055565b5050565b61124f611398565b6001600160a01b03811661128f576040517fc005a78a00000000000000000000000000000000000000000000000000000000815260040160405180910390fd5b600654604080516001600160a01b03928316815291831660208301527f4ab5be82436d353e61ca18726e984e561f5c1cc7c6d38b29d2553c790434705a910160405180910390a1600680547fffffffffffffffffffffffff0000000000000000000000000000000000000000166001600160a01b0392909216919091179055565b611318611398565b600180546001600160a01b0383167fffffffffffffffffffffffff000000000000000000000000000000000000000090911681179091556113605f546001600160a01b031690565b6001600160a01b03167f38d16b8cac22d99fc7c124b9cd0de2d3fa1faef420bfe791d8c362d765e2270060405160405180910390a350565b5f546001600160a01b03163314610546576040517f118cdaa7000000000000000000000000000000000000000000000000000000008152336004820152602401610658565b6113e5611613565b600180547fffffffffffffffffffffff00ffffffffffffffffffffffffffffffffffffffff1690557f5db9ee0a495bf2e6ff9c91a7834c1ba4fdd244a5e8aa4e537bd38aeae4b073aa335b6040516001600160a01b03909116815260200160405180910390a1565b600180547fffffffffffffffffffffffff00000000000000000000000000000000000000001690556107ff81611667565b611486611569565b600180547fffffffffffffffffffffff00ffffffffffffffffffffffffffffffffffffffff16740100000000000000000000000000000000000000001790557f62e78cea01bee320cd4e420270b5ea74000d11b0c9f74754ebdbfc544b05a2586114303390565b6114f56116ce565b60027f9b779b17422d0df92223018b32b4d1fa46e071723d6817e2486d003becc55f0055565b6115288383836001611729565b610b02576040517f5274afe70000000000000000000000000000000000000000000000000000000081526001600160a01b0384166004820152602401610658565b60015474010000000000000000000000000000000000000000900460ff1615610546576040517fd93c066500000000000000000000000000000000000000000000000000000000815260040160405180910390fd5b6115cc8484848460016117a4565b61160d576040517f5274afe70000000000000000000000000000000000000000000000000000000081526001600160a01b0385166004820152602401610658565b50505050565b60015474010000000000000000000000000000000000000000900460ff16610546576040517f8dfc202b00000000000000000000000000000000000000000000000000000000815260040160405180910390fd5b5f80546001600160a01b038381167fffffffffffffffffffffffff0000000000000000000000000000000000000000831681178455604051919092169283917f8be0079c531659141344cd1fd0a4f28419497f9722a3daafe3b4186f6b6457e09190a35050565b7f9b779b17422d0df92223018b32b4d1fa46e071723d6817e2486d003becc55f0054600203610546576040517f3ee5aeb500000000000000000000000000000000000000000000000000000000815260040160405180910390fd5b6040517fa9059cbb000000000000000000000000000000000000000000000000000000005f8181526001600160a01b038616600452602485905291602083604481808b5af1925060015f5114831661179857838315161561178c573d5f823e3d81fd5b5f873b113d1516831692505b60405250949350505050565b6040517f23b872dd000000000000000000000000000000000000000000000000000000005f8181526001600160a01b038781166004528616602452604485905291602083606481808c5af1925060015f5114831661181957838315161561180d573d5f823e3d81fd5b5f883b113d1516831692505b604052505f60605295945050505050565b6001600160a01b03811681146107ff575f80fd5b5f806040838503121561184f575f80fd5b8235915060208301356118618161182a565b809150509250929050565b5f6020828403121561187c575f80fd5b81356118878161182a565b9392505050565b5f805f606084860312156118a0575f80fd5b8335925060208401356118b28161182a565b915060408401356118c28161182a565b809150509250925092565b5f602082840312156118dd575f80fd5b5035919050565b5f805f606084860312156118f6575f80fd5b83356119018161182a565b925060208401356119118161182a565b929592945050506040919091013590565b5f805f60608486031215611934575f80fd5b8335925060208401356119118161182a565b5f60208284031215611956575f80fd5b81516118878161182a565b7f4e487b71000000000000000000000000000000000000000000000000000000005f52601160045260245ffd5b8181038181111561053057610530611961565b7f4e487b71000000000000000000000000000000000000000000000000000000005f52604160045260245ffd5b60405160e0810167ffffffffffffffff811182821017156119f1576119f16119a1565b60405290565b8051611a028161182a565b919050565b5f82601f830112611a16575f80fd5b815167ffffffffffffffff811115611a3057611a306119a1565b604051601f82017fffffffffffffffffffffffffffffffffffffffffffffffffffffffffffffffe0908116603f0116810167ffffffffffffffff81118282101715611a7d57611a7d6119a1565b604052818152838201602001851015611a94575f80fd5b8160208501602083015e5f918101602001919091529392505050565b805167ffffffffffffffff81168114611a02575f80fd5b80518015158114611a02575f80fd5b5f60208284031215611ae6575f80fd5b815167ffffffffffffffff811115611afc575f80fd5b820160e08185031215611b0d575f80fd5b611b156119ce565b81518152611b25602083016119f7565b6020820152611b36604083016119f7565b6040820152611b47606083016119f7565b6060820152608082015167ffffffffffffffff811115611b65575f80fd5b611b7186828501611a07565b608083015250611b8360a08301611ab0565b60a0820152611b9460c08301611ac7565b60c0820152949350505050565b8082018082111561053057610530611961565b808202811582820484141761053057610530611961565b5f82611bfe577f4e487b71000000000000000000000000000000000000000000000000000000005f52601260045260245ffd5b50049056fea26469706673582212203a13375eea30bc65933ff1f4878141c973d922dd4470e24cd25780bc5c4ad69964736f6c634300081a0033","linkReferences":{}},"methodIdentifiers":{"BPS_DENOMINATOR()":"e1a45218","MAX_BUYBACK_BPS()":"bd1022a1","MAX_PLATFORM_FEE_BPS()":"8d01513c","acceptOwnership()":"79ba5097","addSupportedToken(address)":"6d69fcaf","buybackBps()":"baa9f0fa","depositRevenue(uint256,address,uint256)":"d249e1b8","distribute(uint256,address)":"e1fa8b02","factory()":"c45a0155","getAvailableBuyback(uint256,address)":"696eb5cd","getRevenue(uint256,address)":"ae663053","getUndistributed(uint256,address)":"386fdf6d","identityRegistry()":"134e18f4","owner()":"8da5cb5b","pause()":"8456cb59","paused()":"5c975abb","pendingOwner()":"e30c3978","platformFeeBps()":"22dcd13e","removeSupportedToken(address)":"76319190","renounceOwnership()":"715018a6","rescueTokens(address,address,uint256)":"cea9d26f","setBuybackBps(uint256)":"bb9943f0","setPlatformFeeBps(uint256)":"c580c942","setTreasury(address)":"f0f44260","supportedTokens(address)":"68c4ac26","transferOwnership(address)":"f2fde38b","treasury()":"61d027b3","unpause()":"3f4ba83a","withdrawBuybackFunds(uint256,address,address)":"8c2be7f4"},"id":48}